{
  "contractName": "RansomwareDetection",
  "abi": [
    {
      "inputs": [
        {
          "internalType": "string",
          "name": "name_",
          "type": "string"
        },
        {
          "internalType": "string",
          "name": "email_",
          "type": "string"
        }
      ],
      "stateMutability": "nonpayable",
      "type": "constructor"
    },
    {
      "inputs": [
        {
          "internalType": "address",
          "name": "",
          "type": "address"
        }
      ],
      "name": "ipfsHashes",
      "outputs": [
        {
          "internalType": "string",
          "name": "",
          "type": "string"
        }
      ],
      "stateMutability": "view",
      "type": "function",
      "constant": true
    },
    {
      "inputs": [
        {
          "internalType": "address",
          "name": "",
          "type": "address"
        },
        {
          "internalType": "uint256",
          "name": "",
          "type": "uint256"
        }
      ],
      "name": "userFiles",
      "outputs": [
        {
          "internalType": "string",
          "name": "",
          "type": "string"
        }
      ],
      "stateMutability": "view",
      "type": "function",
      "constant": true
    },
    {
      "inputs": [
        {
          "internalType": "address",
          "name": "",
          "type": "address"
        },
        {
          "internalType": "string",
          "name": "",
          "type": "string"
        }
      ],
      "name": "userIPFSHashes",
      "outputs": [
        {
          "internalType": "bool",
          "name": "",
          "type": "bool"
        }
      ],
      "stateMutability": "view",
      "type": "function",
      "constant": true
    },
    {
      "stateMutability": "payable",
      "type": "receive",
      "payable": true
    },
    {
      "inputs": [
        {
          "internalType": "address",
          "name": "id_",
          "type": "address"
        }
      ],
      "name": "getUserDetails",
      "outputs": [
        {
          "components": [
            {
              "internalType": "enum Types.UserRole",
              "name": "role",
              "type": "uint8"
            },
            {
              "internalType": "address",
              "name": "id_",
              "type": "address"
            },
            {
              "internalType": "string",
              "name": "name",
              "type": "string"
            },
            {
              "internalType": "string",
              "name": "email",
              "type": "string"
            }
          ],
          "internalType": "struct Types.UserDetails",
          "name": "",
          "type": "tuple"
        }
      ],
      "stateMutability": "view",
      "type": "function",
      "constant": true
    },
    {
      "inputs": [
        {
          "components": [
            {
              "internalType": "enum Types.UserRole",
              "name": "role",
              "type": "uint8"
            },
            {
              "internalType": "address",
              "name": "id_",
              "type": "address"
            },
            {
              "internalType": "string",
              "name": "name",
              "type": "string"
            },
            {
              "internalType": "string",
              "name": "email",
              "type": "string"
            }
          ],
          "internalType": "struct Types.UserDetails",
          "name": "user_",
          "type": "tuple"
        }
      ],
      "name": "addUser",
      "outputs": [],
      "stateMutability": "nonpayable",
      "type": "function"
    },
    {
      "inputs": [
        {
          "internalType": "string",
          "name": "ipfsHash",
          "type": "string"
        }
      ],
      "name": "storeIPFSHash",
      "outputs": [],
      "stateMutability": "nonpayable",
      "type": "function"
    },
    {
      "inputs": [
        {
          "internalType": "address",
          "name": "userAddress",
          "type": "address"
        }
      ],
      "name": "getIPFSHash",
      "outputs": [
        {
          "internalType": "string",
          "name": "",
          "type": "string"
        }
      ],
      "stateMutability": "view",
      "type": "function",
      "constant": true
    },
    {
      "inputs": [
        {
          "internalType": "address",
          "name": "userAddress",
          "type": "address"
        }
      ],
      "name": "getUserFileHashes",
      "outputs": [
        {
          "internalType": "string[]",
          "name": "",
          "type": "string[]"
        }
      ],
      "stateMutability": "view",
      "type": "function",
      "constant": true
    },
    {
      "inputs": [
        {
          "internalType": "string",
          "name": "ipfsHash",
          "type": "string"
        }
      ],
      "name": "retrieveFileFromIPFS",
      "outputs": [
        {
          "internalType": "string",
          "name": "",
          "type": "string"
        }
      ],
      "stateMutability": "view",
      "type": "function",
      "constant": true
    }
  ],
  "bytecode": "0x60806040523480156200001157600080fd5b5060405162002a9638038062002a9683398181016040528101906200003791906200052e565b60006040518060800160405280600060028111156200005b576200005a620005b3565b5b81526020013373ffffffffffffffffffffffffffffffffffffffff168152602001848152602001838152509050620000a281620000ab640100000000026401000000009004565b5050506200099d565b600073ffffffffffffffffffffffffffffffffffffffff16816020015173ffffffffffffffffffffffffffffffffffffffff1603620000e957600080fd5b6200010c8160000151826020015162000242640100000000026401000000009004565b156200014f576040517f08c379a0000000000000000000000000000000000000000000000000000000008152600401620001469062000643565b60405180910390fd5b80600080836020015173ffffffffffffffffffffffffffffffffffffffff1673ffffffffffffffffffffffffffffffffffffffff16815260200190815260200160002060008201518160000160006101000a81548160ff02191690836002811115620001c057620001bf620005b3565b5b021790555060208201518160000160016101000a81548173ffffffffffffffffffffffffffffffffffffffff021916908373ffffffffffffffffffffffffffffffffffffffff1602179055506040820151816001019081620002239190620008b6565b5060608201518160020190816200023b9190620008b6565b5090505050565b60008073ffffffffffffffffffffffffffffffffffffffff168273ffffffffffffffffffffffffffffffffffffffff16036200027d57600080fd5b600073ffffffffffffffffffffffffffffffffffffffff166000808473ffffffffffffffffffffffffffffffffffffffff1673ffffffffffffffffffffffffffffffffffffffff16815260200190815260200160002060000160019054906101000a900473ffffffffffffffffffffffffffffffffffffffff1673ffffffffffffffffffffffffffffffffffffffff16141580156200039357508260028111156200032d576200032c620005b3565b5b6000808473ffffffffffffffffffffffffffffffffffffffff1673ffffffffffffffffffffffffffffffffffffffff16815260200190815260200160002060000160009054906101000a900460ff166002811115620003915762000390620005b3565b5b145b905092915050565b6000604051905090565b600080fd5b600080fd5b600080fd5b600080fd5b6000601f19601f8301169050919050565b7f4e487b7100000000000000000000000000000000000000000000000000000000600052604160045260246000fd5b6200040482620003b9565b810181811067ffffffffffffffff82111715620004265762000425620003ca565b5b80604052505050565b60006200043b6200039b565b9050620004498282620003f9565b919050565b600067ffffffffffffffff8211156200046c576200046b620003ca565b5b6200047782620003b9565b9050602081019050919050565b60005b83811015620004a457808201518184015260208101905062000487565b60008484015250505050565b6000620004c7620004c1846200044e565b6200042f565b905082815260208101848484011115620004e657620004e5620003b4565b5b620004f384828562000484565b509392505050565b600082601f830112620005135762000512620003af565b5b815162000525848260208601620004b0565b91505092915050565b60008060408385031215620005485762000547620003a5565b5b600083015167ffffffffffffffff811115620005695762000568620003aa565b5b6200057785828601620004fb565b925050602083015167ffffffffffffffff8111156200059b576200059a620003aa565b5b620005a985828601620004fb565b9150509250929050565b7f4e487b7100000000000000000000000000000000000000000000000000000000600052602160045260246000fd5b600082825260208201905092915050565b7f53616d65207573657220776974682073616d6520726f6c652065786973747300600082015250565b60006200062b601f83620005e2565b91506200063882620005f3565b602082019050919050565b600060208201905081810360008301526200065e816200061c565b9050919050565b600081519050919050565b7f4e487b7100000000000000000000000000000000000000000000000000000000600052602260045260246000fd5b60006002820490506001821680620006b857607f821691505b602082108103620006ce57620006cd62000670565b5b50919050565b60008190508160005260206000209050919050565b60006020601f8301049050919050565b60008160020a8302905092915050565b6000600883026200073b7fffffffffffffffffffffffffffffffffffffffffffffffffffffffffffffffff82620006f9565b620007478683620006f9565b95508019841693508086168417925050509392505050565b6000819050919050565b6000819050919050565b6000620007946200078e62000788846200075f565b62000769565b6200075f565b9050919050565b6000819050919050565b620007b08362000773565b620007c8620007bf826200079b565b84845462000709565b825550505050565b600090565b620007df620007d0565b620007ec818484620007a5565b505050565b5b81811015620008145762000808600082620007d5565b600181019050620007f2565b5050565b601f82111562000863576200082d81620006d4565b6200083884620006e9565b8101602085101562000848578190505b620008606200085785620006e9565b830182620007f1565b50505b505050565b60008160020a8304905092915050565b60006200088b6000198460080262000868565b1980831691505092915050565b6000620008a6838362000878565b9150826002028217905092915050565b620008c18262000665565b67ffffffffffffffff811115620008dd57620008dc620003ca565b5b620008e982546200069f565b620008f682828562000818565b600060209050601f8311600181146200092e576000841562000919578287015190505b62000925858262000898565b86555062000995565b601f1984166200093e86620006d4565b60005b82811015620009685784890151825560018201915060208501945060208101905062000941565b8683101562000988578489015162000984601f89168262000878565b8355505b6001600288020188555050505b505050505050565b6120e980620009ad6000396000f3fe6080604052600436106100a7576000357c010000000000000000000000000000000000000000000000000000000090048063770bb35011610076578063770bb3501461017f578063cb0ab425146101bc578063cc3d967b146101f9578063e1e322ed14610236578063ed58c0c614610273576100ae565b806322ad15ed146100b35780634e31ad9d146100f0578063718f38a614610119578063766574e414610156576100ae565b366100ae57005b600080fd5b3480156100bf57600080fd5b506100da60048036038101906100d591906115f9565b6102b0565b6040516100e79190611670565b60405180910390f35b3480156100fc57600080fd5b506101176004803603810190610112919061168b565b6102f5565b005b34801561012557600080fd5b50610140600480360381019061013b919061170a565b610493565b60405161014d91906117c9565b60405180910390f35b34801561016257600080fd5b5061017d600480360381019061017891906118ca565b61054c565b005b34801561018b57600080fd5b506101a660048036038101906101a19190611913565b610559565b6040516101b39190611a4c565b60405180910390f35b3480156101c857600080fd5b506101e360048036038101906101de9190611913565b610726565b6040516101f091906117c9565b60405180910390f35b34801561020557600080fd5b50610220600480360381019061021b9190611913565b6108ac565b60405161022d9190611b5e565b60405180910390f35b34801561024257600080fd5b5061025d60048036038101906102589190611913565b6108c4565b60405161026a91906117c9565b60405180910390f35b34801561027f57600080fd5b5061029a6004803603810190610295919061168b565b610964565b6040516102a791906117c9565b60405180910390f35b6005602052816000526040600020818051602081018201805184825260208301602085012081835280955050505050506000915091509054906101000a900460ff1681565b6001600281111561030957610308611a6e565b5b6000803373ffffffffffffffffffffffffffffffffffffffff1673ffffffffffffffffffffffffffffffffffffffff16815260200190815260200160002060000160009054906101000a900460ff16600281111561036a57610369611a6e565b5b146103aa576040517f08c379a00000000000000000000000000000000000000000000000000000000081526004016103a190611bf2565b60405180910390fd5b600360003373ffffffffffffffffffffffffffffffffffffffff1673ffffffffffffffffffffffffffffffffffffffff1681526020019081526020016000208190806001815401808255809150506001900390600052602060002001600090919091909150908161041b9190611e24565b506001600560003373ffffffffffffffffffffffffffffffffffffffff1673ffffffffffffffffffffffffffffffffffffffff1681526020019081526020016000208260405161046b9190611f32565b908152602001604051809103902060006101000a81548160ff02191690831515021790555050565b600360205281600052604060002081815481106104af57600080fd5b906000526020600020016000915091505080546104cb90611c41565b80601f01602080910402602001604051908101604052809291908181526020018280546104f790611c41565b80156105445780601f1061051957610100808354040283529160200191610544565b820191906000526020600020905b81548152906001019060200180831161052757829003601f168201915b505050505081565b6105568133610a23565b50565b60606001600281111561056f5761056e611a6e565b5b6000803373ffffffffffffffffffffffffffffffffffffffff1673ffffffffffffffffffffffffffffffffffffffff16815260200190815260200160002060000160009054906101000a900460ff1660028111156105d0576105cf611a6e565b5b14610610576040517f08c379a000000000000000000000000000000000000000000000000000000000815260040161060790611bf2565b60405180910390fd5b600360008373ffffffffffffffffffffffffffffffffffffffff1673ffffffffffffffffffffffffffffffffffffffff168152602001908152602001600020805480602002602001604051908101604052809291908181526020016000905b8282101561071b57838290600052602060002001805461068e90611c41565b80601f01602080910402602001604051908101604052809291908181526020018280546106ba90611c41565b80156107075780601f106106dc57610100808354040283529160200191610707565b820191906000526020600020905b8154815290600101906020018083116106ea57829003601f168201915b50505050508152602001906001019061066f565b505050509050919050565b60606001600281111561073c5761073b611a6e565b5b6000803373ffffffffffffffffffffffffffffffffffffffff1673ffffffffffffffffffffffffffffffffffffffff16815260200190815260200160002060000160009054906101000a900460ff16600281111561079d5761079c611a6e565b5b146107dd576040517f08c379a00000000000000000000000000000000000000000000000000000000081526004016107d490611bf2565b60405180910390fd5b600460008373ffffffffffffffffffffffffffffffffffffffff1673ffffffffffffffffffffffffffffffffffffffff168152602001908152602001600020805461082790611c41565b80601f016020809104026020016040519081016040528092919081815260200182805461085390611c41565b80156108a05780601f10610875576101008083540402835291602001916108a0565b820191906000526020600020905b81548152906001019060200180831161088357829003601f168201915b50505050509050919050565b6108b46113f1565b6108bd82610e49565b9050919050565b600460205280600052604060002060009150905080546108e390611c41565b80601f016020809104026020016040519081016040528092919081815260200182805461090f90611c41565b801561095c5780601f106109315761010080835404028352916020019161095c565b820191906000526020600020905b81548152906001019060200180831161093f57829003601f168201915b505050505081565b60606001600281111561097a57610979611a6e565b5b6000803373ffffffffffffffffffffffffffffffffffffffff1673ffffffffffffffffffffffffffffffffffffffff16815260200190815260200160002060000160009054906101000a900460ff1660028111156109db576109da611a6e565b5b14610a1b576040517f08c379a0000000000000000000000000000000000000000000000000000000008152600401610a1290611bf2565b60405180910390fd5b819050919050565b600073ffffffffffffffffffffffffffffffffffffffff168173ffffffffffffffffffffffffffffffffffffffff1603610a5c57600080fd5b600073ffffffffffffffffffffffffffffffffffffffff16826020015173ffffffffffffffffffffffffffffffffffffffff1603610a9957600080fd5b6000610aa482610edf565b60000151905060006002811115610abe57610abd611a6e565b5b816002811115610ad157610ad0611a6e565b5b03610e095760016002811115610aea57610ae9611a6e565b5b83600001516002811115610b0157610b00611a6e565b5b1480610b345750600280811115610b1b57610b1a611a6e565b5b83600001516002811115610b3257610b31611a6e565b5b145b15610dc95760016002811115610b4d57610b4c611a6e565b5b83600001516002811115610b6457610b63611a6e565b5b03610c7c57600160008373ffffffffffffffffffffffffffffffffffffffff1673ffffffffffffffffffffffffffffffffffffffff16815260200190815260200160002083908060018154018082558091505060019003906000526020600020906003020160009091909190915060008201518160000160006101000a81548160ff02191690836002811115610bfd57610bfc611a6e565b5b021790555060208201518160000160016101000a81548173ffffffffffffffffffffffffffffffffffffffff021916908373ffffffffffffffffffffffffffffffffffffffff1602179055506040820151816001019081610c5e9190611e24565b506060820151816002019081610c749190611e24565b505050610dbb565b600280811115610c8f57610c8e611a6e565b5b83600001516002811115610ca657610ca5611a6e565b5b03610dba57600260008373ffffffffffffffffffffffffffffffffffffffff1673ffffffffffffffffffffffffffffffffffffffff16815260200190815260200160002083908060018154018082558091505060019003906000526020600020906003020160009091909190915060008201518160000160006101000a81548160ff02191690836002811115610d3f57610d3e611a6e565b5b021790555060208201518160000160016101000a81548173ffffffffffffffffffffffffffffffffffffffff021916908373ffffffffffffffffffffffffffffffffffffffff1602179055506040820151816001019081610da09190611e24565b506060820151816002019081610db69190611e24565b5050505b5b610dc483611125565b610e04565b6040517f08c379a0000000000000000000000000000000000000000000000000000000008152600401610dfb90611f95565b60405180910390fd5b610e44565b6040517f08c379a0000000000000000000000000000000000000000000000000000000008152600401610e3b90612027565b60405180910390fd5b505050565b610e516113f1565b600073ffffffffffffffffffffffffffffffffffffffff168273ffffffffffffffffffffffffffffffffffffffff1603610e8a57600080fd5b600073ffffffffffffffffffffffffffffffffffffffff16610eab83610edf565b6020015173ffffffffffffffffffffffffffffffffffffffff1603610ecf57600080fd5b610ed882610edf565b9050919050565b610ee76113f1565b600073ffffffffffffffffffffffffffffffffffffffff168273ffffffffffffffffffffffffffffffffffffffff1603610f2057600080fd5b6000808373ffffffffffffffffffffffffffffffffffffffff1673ffffffffffffffffffffffffffffffffffffffff1681526020019081526020016000206040518060800160405290816000820160009054906101000a900460ff166002811115610f8e57610f8d611a6e565b5b6002811115610fa057610f9f611a6e565b5b81526020016000820160019054906101000a900473ffffffffffffffffffffffffffffffffffffffff1673ffffffffffffffffffffffffffffffffffffffff1673ffffffffffffffffffffffffffffffffffffffff16815260200160018201805461100a90611c41565b80601f016020809104026020016040519081016040528092919081815260200182805461103690611c41565b80156110835780601f1061105857610100808354040283529160200191611083565b820191906000526020600020905b81548152906001019060200180831161106657829003601f168201915b5050505050815260200160028201805461109c90611c41565b80601f01602080910402602001604051908101604052809291908181526020018280546110c890611c41565b80156111155780601f106110ea57610100808354040283529160200191611115565b820191906000526020600020905b8154815290600101906020018083116110f857829003601f168201915b5050505050815250509050919050565b600073ffffffffffffffffffffffffffffffffffffffff16816020015173ffffffffffffffffffffffffffffffffffffffff160361116257600080fd5b611174816000015182602001516112a0565b156111b4576040517f08c379a00000000000000000000000000000000000000000000000000000000081526004016111ab90612093565b60405180910390fd5b80600080836020015173ffffffffffffffffffffffffffffffffffffffff1673ffffffffffffffffffffffffffffffffffffffff16815260200190815260200160002060008201518160000160006101000a81548160ff0219169083600281111561122257611221611a6e565b5b021790555060208201518160000160016101000a81548173ffffffffffffffffffffffffffffffffffffffff021916908373ffffffffffffffffffffffffffffffffffffffff16021790555060408201518160010190816112839190611e24565b5060608201518160020190816112999190611e24565b5090505050565b60008073ffffffffffffffffffffffffffffffffffffffff168273ffffffffffffffffffffffffffffffffffffffff16036112da57600080fd5b600073ffffffffffffffffffffffffffffffffffffffff166000808473ffffffffffffffffffffffffffffffffffffffff1673ffffffffffffffffffffffffffffffffffffffff16815260200190815260200160002060000160019054906101000a900473ffffffffffffffffffffffffffffffffffffffff1673ffffffffffffffffffffffffffffffffffffffff16141580156113e9575082600281111561138657611385611a6e565b5b6000808473ffffffffffffffffffffffffffffffffffffffff1673ffffffffffffffffffffffffffffffffffffffff16815260200190815260200160002060000160009054906101000a900460ff1660028111156113e7576113e6611a6e565b5b145b905092915050565b6040518060800160405280600060028111156114105761140f611a6e565b5b8152602001600073ffffffffffffffffffffffffffffffffffffffff16815260200160608152602001606081525090565b6000604051905090565b600080fd5b600080fd5b600073ffffffffffffffffffffffffffffffffffffffff82169050919050565b600061148082611455565b9050919050565b61149081611475565b811461149b57600080fd5b50565b6000813590506114ad81611487565b92915050565b600080fd5b600080fd5b6000601f19601f8301169050919050565b7f4e487b7100000000000000000000000000000000000000000000000000000000600052604160045260246000fd5b611506826114bd565b810181811067ffffffffffffffff82111715611525576115246114ce565b5b80604052505050565b6000611538611441565b905061154482826114fd565b919050565b600067ffffffffffffffff821115611564576115636114ce565b5b61156d826114bd565b9050602081019050919050565b82818337600083830152505050565b600061159c61159784611549565b61152e565b9050828152602081018484840111156115b8576115b76114b8565b5b6115c384828561157a565b509392505050565b600082601f8301126115e0576115df6114b3565b5b81356115f0848260208601611589565b91505092915050565b600080604083850312156116105761160f61144b565b5b600061161e8582860161149e565b925050602083013567ffffffffffffffff81111561163f5761163e611450565b5b61164b858286016115cb565b9150509250929050565b60008115159050919050565b61166a81611655565b82525050565b60006020820190506116856000830184611661565b92915050565b6000602082840312156116a1576116a061144b565b5b600082013567ffffffffffffffff8111156116bf576116be611450565b5b6116cb848285016115cb565b91505092915050565b6000819050919050565b6116e7816116d4565b81146116f257600080fd5b50565b600081359050611704816116de565b92915050565b600080604083850312156117215761172061144b565b5b600061172f8582860161149e565b9250506020611740858286016116f5565b9150509250929050565b600081519050919050565b600082825260208201905092915050565b60005b83811015611784578082015181840152602081019050611769565b60008484015250505050565b600061179b8261174a565b6117a58185611755565b93506117b5818560208601611766565b6117be816114bd565b840191505092915050565b600060208201905081810360008301526117e38184611790565b905092915050565b600080fd5b600080fd5b6003811061180257600080fd5b50565b600081359050611814816117f5565b92915050565b6000608082840312156118305761182f6117eb565b5b61183a608061152e565b9050600061184a84828501611805565b600083015250602061185e8482850161149e565b602083015250604082013567ffffffffffffffff811115611882576118816117f0565b5b61188e848285016115cb565b604083015250606082013567ffffffffffffffff8111156118b2576118b16117f0565b5b6118be848285016115cb565b60608301525092915050565b6000602082840312156118e0576118df61144b565b5b600082013567ffffffffffffffff8111156118fe576118fd611450565b5b61190a8482850161181a565b91505092915050565b6000602082840312156119295761192861144b565b5b60006119378482850161149e565b91505092915050565b600081519050919050565b600082825260208201905092915050565b6000819050602082019050919050565b600082825260208201905092915050565b60006119888261174a565b611992818561196c565b93506119a2818560208601611766565b6119ab816114bd565b840191505092915050565b60006119c2838361197d565b905092915050565b6000602082019050919050565b60006119e282611940565b6119ec818561194b565b9350836020820285016119fe8561195c565b8060005b85811015611a3a5784840389528151611a1b85826119b6565b9450611a26836119ca565b925060208a01995050600181019050611a02565b50829750879550505050505092915050565b60006020820190508181036000830152611a6681846119d7565b905092915050565b7f4e487b7100000000000000000000000000000000000000000000000000000000600052602160045260246000fd5b60038110611aae57611aad611a6e565b5b50565b6000819050611abf82611a9d565b919050565b6000611acf82611ab1565b9050919050565b611adf81611ac4565b82525050565b611aee81611475565b82525050565b6000608083016000830151611b0c6000860182611ad6565b506020830151611b1f6020860182611ae5565b5060408301518482036040860152611b37828261197d565b91505060608301518482036060860152611b51828261197d565b9150508091505092915050565b60006020820190508181036000830152611b788184611af4565b905092915050565b7f4f6e6c792075736572732063616e2063616c6c20746869732066756e6374696f60008201527f6e00000000000000000000000000000000000000000000000000000000000000602082015250565b6000611bdc602183611755565b9150611be782611b80565b604082019050919050565b60006020820190508181036000830152611c0b81611bcf565b9050919050565b7f4e487b7100000000000000000000000000000000000000000000000000000000600052602260045260246000fd5b60006002820490506001821680611c5957607f821691505b602082108103611c6c57611c6b611c12565b5b50919050565b60008190508160005260206000209050919050565b60006020601f8301049050919050565b60008160020a8302905092915050565b600060088302611cd77fffffffffffffffffffffffffffffffffffffffffffffffffffffffffffffffff82611c97565b611ce18683611c97565b95508019841693508086168417925050509392505050565b6000819050919050565b6000611d1e611d19611d14846116d4565b611cf9565b6116d4565b9050919050565b6000819050919050565b611d3883611d03565b611d4c611d4482611d25565b848454611ca7565b825550505050565b600090565b611d61611d54565b611d6c818484611d2f565b505050565b5b81811015611d9057611d85600082611d59565b600181019050611d72565b5050565b601f821115611dd557611da681611c72565b611daf84611c87565b81016020851015611dbe578190505b611dd2611dca85611c87565b830182611d71565b50505b505050565b60008160020a8304905092915050565b6000611dfb60001984600802611dda565b1980831691505092915050565b6000611e148383611dea565b9150826002028217905092915050565b611e2d8261174a565b67ffffffffffffffff811115611e4657611e456114ce565b5b611e508254611c41565b611e5b828285611d94565b600060209050601f831160018114611e8e5760008415611e7c578287015190505b611e868582611e08565b865550611eee565b601f198416611e9c86611c72565b60005b82811015611ec457848901518255600182019150602085019450602081019050611e9f565b86831015611ee15784890151611edd601f891682611dea565b8355505b6001600288020188555050505b505050505050565b600081905092915050565b6000611f0c8261174a565b611f168185611ef6565b9350611f26818560208601611766565b80840191505092915050565b6000611f3e8284611f01565b915081905092915050565b7f496e76616c696420726f6c6520666f722041646d696e00000000000000000000600082015250565b6000611f7f601683611755565b9150611f8a82611f49565b602082019050919050565b60006020820190508181036000830152611fae81611f72565b9050919050565b7f4f6e6c792041646d696e2063616e20706572666f726d2074686973206f70657260008201527f6174696f6e000000000000000000000000000000000000000000000000000000602082015250565b6000612011602583611755565b915061201c82611fb5565b604082019050919050565b6000602082019050818103600083015261204081612004565b9050919050565b7f53616d65207573657220776974682073616d6520726f6c652065786973747300600082015250565b600061207d601f83611755565b915061208882612047565b602082019050919050565b600060208201905081810360008301526120ac81612070565b905091905056fea2646970667358221220bc802e09dca4fe05ac34e390fc6b9af3bb2b3620a660d8937c174130e20ca9be64736f6c63430008150033",
  "immutableReferences": {},
  "source": "// SPDX-License-Identifier: MIT\r\npragma solidity ^0.8.0;\r\n\r\nimport \"./Types.sol\";\r\nimport \"./Users.sol\";  \r\n\r\ncontract RansomwareDetection is Users {\r\n\r\n     using Types for *; \r\n\r\n    mapping(address => string[]) public userFiles;\r\n    mapping(address => string) public ipfsHashes;\r\n    mapping(address => mapping(string => bool)) public userIPFSHashes;\r\n\r\n\r\n    constructor(string memory name_, string memory email_) {\r\n        Types.UserDetails memory userDetails = Types.UserDetails({\r\n            role: Types.UserRole.Admin,\r\n            id_: msg.sender,\r\n            name: name_,\r\n            email: email_\r\n        });\r\n        add(userDetails);\r\n    }\r\n\r\n       function getUserDetails(address id_)\r\n        public\r\n        view\r\n        returns (Types.UserDetails memory)\r\n    {\r\n        return getuserDetails(id_);\r\n    }\r\n\r\n\r\n    function addUser(Types.UserDetails memory user_) public {\r\n        adduser(user_, msg.sender);\r\n    }\r\n\r\n\r\n     function storeIPFSHash(string memory ipfsHash) public onlyUser {\r\n       // require(!userIPFSHashes[msg.sender][ipfsHash], \"IPFS hash already stored for this user\");\r\n        \r\n        userFiles[msg.sender].push(ipfsHash);\r\n        userIPFSHashes[msg.sender][ipfsHash] = true;\r\n    }\r\n\r\n\r\n    function getIPFSHash(address userAddress) public view onlyUser returns (string memory) {\r\n        return ipfsHashes[userAddress];\r\n    }\r\n    \r\n    function getUserFileHashes(address userAddress) public view onlyUser returns (string[] memory) {\r\n        return userFiles[userAddress];\r\n    }\r\n\r\n    function retrieveFileFromIPFS(string memory ipfsHash) public view onlyUser returns (string memory) {\r\n        return ipfsHash;\r\n    }\r\n\r\n\r\n    receive() external payable {}\r\n    \r\n}\r\n",
  "sourcePath": "E:\\ReactJsApp\\Ransomware-Detection\\blockchain\\contracts\\RansomwareDetection.sol",
  "compiler": {
    "name": "solc",
    "version": "0.8.21+commit.d9974bed.Emscripten.clang"
  },
  "schemaVersion": "3.4.16",
  "updatedAt": "2023-12-19T22:48:21.411Z",
  "networkType": "ethereum",
  "devdoc": {
    "kind": "dev",
    "methods": {},
    "version": 1
  },
  "userdoc": {
    "kind": "user",
    "methods": {},
    "version": 1
  }
}